:020000041100E9
:10300000E00300181D31001125310011ED400011C1
:103010003342001169370011DB4600110000000047
:103020000000000000000000000000002F3100112F
:103030003131001100000000333100112946001128
:10304000B54000113731001137310011373100110F
:103050006D370011B93700113731001137310011C8
:1030600037310011ED45001137310011A346001131
:10307000E1390011193A00113731001137310011CF
:1030800000F002F800F03AF80AA090E8000C824440
:103090008344AAF10107DA4501D100F02FF8AFF21D
:1030A000090EBAE80F0013F0010F18BFFB1A43F026
:1030B00001031847802E0000A02E0000103A24BF04
:1030C00078C878C1FAD8520724BF30C830C144BF8D
:1030D00004680C60704700000023002400250026CF
:1030E000103A28BF78C1FBD8520728BF30C148BF6B
:1030F0000B6070471FB51FBD10B510BD00F065F81F
:103100001146FFF7F7FF01F0D5FC00F083F803B498
:10311000FFF7F2FF03BC00F08BF80000094880477E
:1031200009480047FEE7FEE7FEE7FEE7FEE7FEE7A9
:10313000FEE7FEE7FEE7FEE704480549034A054BC4
:10314000704700003D46001181300011E001001879
:10315000E0030018E0010018002800DA4042704740
:1031600010B5203AC0F00B80B1E81850203AA0E822
:103170001850B1E81850A0E81850BFF4F5AF5FEA56
:10318000027C24BFB1E81850A0E8185044BF18C909
:1031900018C0BDE810405FEA827C24BF51F8043BB0
:1031A00040F8043B08BF7047D20728BF31F8023B04
:1031B00048BF11F8012B28BF20F8023B48BF00F898
:1031C000012B7047704770477047754600F02CF828
:1031D000AE4605006946534620F00700854618B004
:1031E00020B5FFF7A9FFBDE820404FF000064FF0E3
:1031F00000074FF000084FF0000B21F00701AC462C
:10320000ACE8C009ACE8C009ACE8C009ACE8C0094A
:103210008D46704710B50446AFF300802046BDE8E8
:103220001040FFF774BF0000004870477C01001891
:1032300001491820ABBEFEE72600020070470000DF
:103240004FF040204FF44071416020218161002106
:10325000C161821502658160C16041620F4A82626C
:10326000C1620167C166816641660166C1658165AB
:103270000164C1670A4A5160012191614FF05021F8
:1032800011F8602F22F001020A70416841F4407188
:103290004160016841F0010101607047000A0028A7
:1032A000008001481248002140F8141F40F20172CA
:1032B000426002228260012240F8142C0D4AC2664C
:1032C0000D4A826749F6291202674BF68832C267B7
:1032D0000A4A426704224263C0F88410C0F8901082
:1032E000C0F88810C0F89410C0F89C107047000017
:1032F00000C0014800422E1C00C5C2A7CCABD2C5FD
:103300000448017941F010010171017821F01001A8
:1033100001707047008002480448017921F01001D3
:103320000171017841F0100101707047008002487E
:10333000154808B513490268C2F3404262B10068FB
:1033400041F28832C0F38900ADF80000504340F2EA
:10335000FF32B0FBF2F008800A4A0C3A9189B1F5CD
:10336000FA7F0CD9508932F81030994203D9107085
:10337000FFF7D2FF03E0042801D2401C5081012056
:1033800008BD0000CC0000185C4000400F484CF61F
:10339000162141620E49016272B698224FF0502107
:1033A00001F8AC2F0B4A8261A8220A7062B60A4962
:1033B000816000210160416001614161074841F283
:1033C00007718160032101627047000000400340E3
:1033D0000100050C01FDFD00515101000080014874
:1033E00030B51B0643EA014141EA0221DDE903450C
:1033F000034A0143116044EA0520506030BD0000DB
:103400000040034010B500F039F807484FF47A71D6
:10341000B0F97400884200DA08460449A0F5FA7051
:1034200008850814888010BDD000001800C0004036
:1034300010B500F04DF807484FF47A71B0F97400F8
:10344000884200DA08460449A0F5FA700885081495
:10345000888010BDD000001800C0004010B500F0FA
:1034600037F804480449B0F8740040080885081487
:10347000888010BDD000001800C000401248818C28
:1034800012488AB2A0F84010B0F84210511AA0F8C1
:103490004410A0F842200022A0F84C2090F872209E
:1034A000521C02F00302A0F8722000EB4202A2F8C4
:1034B000621030F8621F4288C388114482881A441F
:1034C000114489084182704700000140D000001873
:1034D0001248818C12488AB2A0F84010B0F842100D
:1034E000511AA0F84410A0F842200022A0F84C2065
:1034F00090F87220521C02F00302A0F8722000EB38
:103500004202A2F8621030F8621F4288C388114458
:1035100082881A44114489084182704700000140A2
:10352000D00000182DE9F041354D364C00272878A1
:10353000A4F17806C01E0C2848D2DFE800F043470B
:1035400047474747470610162B38FFF7C1FFA08BA8
:10355000401E0004000CA08338D10B2030E0FFF7A0
:103560007DFF0220A0830C202AE0A08B401E0004D7
:10357000000CA08302D0FFF7ABFF27E00D202870DE
:10358000FFF76CFF0420A0831F48816821F0080129
:1035900081601BE0FFF762FFA08B401E0004000C5F
:1035A000A08313D10E2028701420A0830EE0FFF713
:1035B00055FFA08B401E0004000CA08306D1032001
:1035C000287003E0FFF74AFFA6F876700F49B1F8BC
:1035D00064000F4BC0F3C222F08F1A44825CA1F842
:1035E0005C20B1F86420C2F302221044094A32F888
:1035F00010000881A08DE085A785BDE8F08100005E
:103600003C000018480100180080014800C000403C
:10361000125F0011F25E00110A4910B531F8760F01
:10362000401C80B20880032801D300F0D5FB00F0D5
:103630004BF8FFF713FF03487830818DC1850021D7
:10364000818510BDD000001809480A490A4AC08F78
:10365000415CA2F85C10094B03EB400048F2800388
:103660008088184310810248783001857047000037
:10367000D0000018145F001100C00040F25E00117D
:103680000D4A10B5B2F864000D4BC0F302210B488F
:103690000B44C08FC35CA2F85C300A4C014448F272
:1036A000800334F811100B431381C1F30221084445
:1036B00034F81000108110BD00C00040D000001888
:1036C000125F0011F25E00110D4A10B5B2F86400ED
:1036D0000D4BC0F302210B480B44C08FC35CA2F812
:1036E0005C300A4C014448F2800334F811100B435B
:1036F0001381C1F30221084434F81000108110BD79
:1037000000C00040D0000018125F0011F25E0011EE
:103710000A4830F8401F21F4E04101F500510180D2
:10372000818A21F00701491C81824FF4405120F821
:10373000341C818841F440518180704700C00040B2
:10374000084830F8401F21F4E04101F54051018064
:10375000818A21F007018182818821F44051818092
:103760007047000000C000407047000010B5114CC9
:10377000B4F84400800407D5B4F86800800403D589
:10378000FFF74AFF6014A081B4F84400C00408D5D4
:10379000B4F86800C00404D5FFF7C4FE4FF48050AD
:1037A000A0814FF0502090F8901141F0010180F875
:1037B000901110BD00C0004010B50B4CB4F844008F
:1037C000000607D5B4F86800000603D500F0A8FD90
:1037D0008020A0814FF0502090F8901141F010010E
:1037E00080F8901110BD000000C000401E484FF44A
:1037F000C061018640F2CF7181840222028540F2CD
:103800003C718185002181820183818302843E2372
:10381000A0F85830A0F8601048F2BF03A0F85C3060
:103820000123A0F854304AF23333A0F84030A0F816
:1038300050100115A0F848104FF44251A0F8441060
:103840004FF4AA41A0F880104BF62571A0F86C1037
:10385000A0F8742030F8041F41F040010180018875
:1038600041F480410180704700C0004030B50446FB
:10387000552010E014F8013B082280EA030515F0FA
:10388000010F4FEA500001D080F08C005B08521EFF
:1038900012F0FF02F1D1491EC9B2EBD230BD0000D7
:1038A0002DE9F041394A9089394C2179012903D019
:1038B000A0F51061023923D1677900210126022584
:1038C000344B072F1CD2DFE807F0042B2D30323D9C
:1038D0005200010AA0812170C0B26070032906D095
:1038E00004290AD005290DD0072929D115E01D206A
:1038F000108190890520607122E00621617120729B
:10390000BDE8F08124490A78244901F031F8012802
:1039100001D06571F4E76671F2E704206071EFE7AA
:10392000E0810CE0E0810320F8E7208207E0B0F5B9
:10393000004F03D3C0F30E0000F5004060826171B8
:103940002571DDE7A0780128DAD1A0791D2806D2FB
:1039500033F8101011819189401CA071D0E7A07A32
:1039600010819089A171A17061712671C8E7E27917
:10397000277A561CF6B2BA4203D223F81200E67137
:10398000BEE7E072E1712172D9E7000000600248F1
:103990000000001884000018F15E0011EA5E0011BA
:1039A00000EB80004FF6FF714FF0E02201EAC0010A
:1039B000906980B2884208D3411A89B293698B42D8
:1039C00002D993698342F9D370475369091A591A86
:1039D00089B293698342FCD390698842FCD87047CE
:1039E00010B54FF0502494F82800800707D52079AF
:1039F000800704D501F09EF9022084F82C0094F889
:103A00002800C00707D02079C00704D000F078FF55
:103A1000012084F82C0010BD10B54FF0502494F80C
:103A20002800000707D52079000704D501F082F9A6
:103A3000082084F82C0094F82800400707D5207946
:103A4000400704D500F05CFF042084F82C0010BD72
:103A50002DE9F84F9048924C924D90F800C004F137
:103A600008000090DFF83492B5F902000026B4F99E
:103A70000030B4F90670216D4FF0080B4FF0400A8A
:103A800004F15402BCF10F0F0CD2DFE80CF0EEE3AE
:103A9000EEA5EEEE08EE0CEEEEEEEE677000688D31
:103AA000401C6885E1E0A98841B3688C012852D0A8
:103AB000AE80EE82B5F91400FFF74EFBB4F860104B
:103AC0004843B4F85A1001EBE02000F30F00698A74
:103AD00080B2414321F34E30B4F9161080B28142D6
:103AE00043DBE18E081AA08680B2A9F81400A9F879
:103AF0001800A9F81C00A9F804A0B6E06949092734
:103B000001F11802C968002B0FDDA4F83EB000F0E7
:103B100080FBA882B5F90A10EA885143414321F39A
:103B2000CF31E982B5F9021010E04042E68700B2D9
:103B300000F06FFBA882B5F90A10EA8851434143AF
:103B400021F3CF31E982B5F9021049428842B1D15F
:103B500051480770AEE7491EA980AAE7B4F858108B
:103B60000004A1606065688AB3E7E08AB9E7002BCA
:103B700004DB002F05DDA4F83EB002E0002F00DAE0
:103B8000E68700F046FBE080B4F900100029618868
:103B900001DD401A00E0081A01B2009800F013FBA2
:103BA0006087698A00B2484320F34E306087B4F9D9
:103BB0001610884200DD6187E18E608F081AA086AA
:103BC00080B2A9F81400A9F81800A9F81C00A9F8F7
:103BD00004A0B4F85C003AE0002B04DB002F05DD04
:103BE000A4F83EB002E0002F00DAE687184600F0A5
:103BF00010FBE080B4F900100029618801DD401A53
:103C000000E0081A01B2009800F0DDFA6087698AC6
:103C100000B2484320F34E306087B4F91610884252
:103C200000DD6187E08E618F401AA08680B2A9F81E
:103C30001400A9F81800A9F81C00A9F804A0B4F809
:103C40005C10A068B0EB410F0FDDB4F85E0020827D
:103C5000A0820AE0FFF774FD1148E66100211830E8
:103C6000A66200F090FA60806E850D48B4F90210EB
:103C7000243000F088FAA0800B480068C0F30900E7
:103C8000ADF80000BDF8000008492882B1FBF0F053
:103C90006882BDE8F88F00003C00001800C00040BA
:103CA000D00000184801001854C00148F0E1490054
:103CB00010B50E4C207808B1012010BD4FF05020F7
:103CC00090F85C1121F0100180F85C11084801891E
:103CD00041F040010181818941F04001818100F082
:103CE0008FF801202070002010BD00003C0000185B
:103CF000000001400149088070470000D000001812
:103D00007CB52E4E3078012801D002207CBD2C4C91
:103D1000B4F90000002801DD082000E00020294956
:103D2000E087415C2848A0F85C10284A48F28003EC
:103D300012881A430281264D298530F8401F21F44C
:103D4000E04141F4405120F83C1902210180E18E0C
:103D5000A18689B2018281820183402101800320F2
:103D600000900346024601460190FFF739FB00F040
:103D700075F9062030701748816841F008018160AC
:103D8000FFF7DEFC288800EB4000C0F3CF36FFF7DA
:103D900039FBFFF775FC2E8400262E80FFF732FBDF
:103DA000FFF76EFC2E84A4F876602889A880B4F80A
:103DB0005800A082208200207CBD00003C0000183A
:103DC000D0000018145F001100C00040F25E001126
:103DD00048010018008001481CB5002000900346EF
:103DE000024601460190FFF7FBFA03490120888053
:103DF0000249087000201CBD00C000403C000018B3
:103E00002DE9F04F854D864885B000246C800088F0
:103E10000290844900B2DFF810A2844EC886BAF836
:103E20000C10F180BAF8201081467184DAF8100085
:103E300001F0D6FC00227E4B01F0EAFA00227D4B15
:103E400001F0E6FA00227C4B01F02CF901F048F871
:103E5000DFF8E8814FF07E574146404503DD0846D4
:103E60004FF4807104E0B84203DA384644F48071BC
:103E7000698001F027FE3081DAF81400544604907E
:103E800001F004FE7080A06901F0AAFC6C4A6D4B41
:103E900001F0BEFA102201F0BCFF01F021F84FF052
:103EA0009E44A04201DD204602E0B84204DA3846D2
:103EB000698841F40071698001F0E8FDF0606248B2
:103EC000B346006801F08CFC02460B4600205F49B7
:103ED00001F0E8F80F22CDE9000101F09AFF0F226E
:103EE00001F097FF00225A4B01F0DCF801F032FAA2
:103EF00070815646DAF81C0001F072FC504A514BB2
:103F000001F086FA102201F084FF00F0E9FFA042E0
:103F100001DD204602E0B84204DA3846698841F4FF
:103F20000071698001F0CEFD3E4C2065029801F0E1
:103F3000E9FD0390B16A01F0F9FD01F0C3FD1FFA3C
:103F400080FAA4F858A00398716B01F0EFFD01F01E
:103F5000B9FDA4F85E000398316B01F0E7FD01F0B4
:103F6000B1FDA4F85C00504601F0CCFD049901F0CD
:103F7000CBFC0B2101F07BFF4146404500DD0846AC
:103F800001F0A0FDA4F860000398F16A01F0CEFDF5
:103F900001F098FDA4F85A00B088A081F088E08173
:103FA000B4F85810A182A9F13200E0822182608227
:103FB000706A01F06BFD2084B06801F011FC0246CC
:103FC0000B46DDE9000101F06DF80F2201F021FF41
:103FD00000F086FF404501DD404602E0B84204DAC9
:103FE0003846698841F04001698001F04FFD208327
:103FF0006083A085E0854FF47A70A084E084154842
:10400000A0644FF0AA30144901F0A4F9A087718C84
:10401000ABF8301005B0BDE8F08F00003C00001890
:1040200024000018D00000184000001848010018B3
:104030000000F43F80842E4100E0A14000FEFF46D6
:104040003D748B0AE6F95D3F140000180000F03F54
:1040500000003E40105E5F002A55B540054A002032
:1040600005495080D06188610B898B80906288837C
:1040700008807047D0000018480100180C48002242
:1040800002814FF40F61018441F2010181814FF6F9
:10409000FF7181840282018582828185C21402833C
:1040A00001864FF69271818348F65E4181807047A8
:1040B0000000014010B54FF0502494F85C01C00797
:1040C00008D094F86001C00704D000F005F8012082
:1040D00084F8640110BD00000348018C4FF2107297
:1040E00011440184FFF7B4BC000001407047000098
:1040F0004FF05020002100F8191BC172C022C2737A
:10410000C1752422C2760122C27780F8232080F86C
:104110004321144A4FF0FF135362134B5361116252
:10412000916280F8BB10D165114B104A1A601B1DBB
:104130004DF210021A601A1D1160121D11604FF02D
:10414000E02343F63122C3F800218022C270FF220F
:1041500080F86B2180F86F2180F82B1180F82F11E7
:104160007047000000600050C7FF3F3FE0000020A4
:1041700000E400E00249072081F8340070470000A5
:10418000004000507047B0F90030426803FB012145
:10419000B0F90230D21303FB121101F31E0141608A
:1041A00041F3CF307047B0F90030426803FB012182
:1041B000B0F90230D21303FB121101F31E0141606A
:1041C00041F3CF307047B0F90630026801FB03229B
:1041D000B0F90830DB039A4204DBB0F90A30DB03A4
:1041E0009A4200DD1A460260B0F904304B4303F3F3
:1041F000180102EB8111B0F90C20C913914201DAC8
:10420000114604E0B0F90E00814200DD014608B21B
:10421000704710B514680304A34203DD6018984288
:1042200003DC03E0601A984200DA184610600014BC
:1042300010BD704710B500F0070201239340114CE8
:10424000020904EBC20272B679B1012910D0022929
:1042500011D00C4A0009121D02EBC000032901789D
:104260000DD01943017062B610BD1078984304E078
:104270001078184301E0107858401070F3E7994324
:10428000F0E700000080024810B500F007020123AB
:104290009340114C020904EBC20272B679B10129B4
:1042A00010D0022911D00C4A0009121D02EBC000E7
:1042B000032901780DD01943017062B610BD107842
:1042C000984304E01078184301E0107858401070CB
:1042D000F3E79943F0E70000008002480F480F2100
:1042E0000171002180F840100177017680F83010CC
:1042F00080F8341000F8111B042200F8052C80F817
:104300003310C174C17380F8272080F82B1000F897
:10431000091C8222C270C176C175704700800248B4
:104320002DE9F05F954E964F964BB08DDFF858B261
:10433000401C85B2B585304697F800C00288C18A16
:10434000A0F1780A11448AB2018CDFF8409200246F
:10435000BAF83E00ACF1030CBCF10C0F4FD2DFE811
:104360000CF0C3CACA064F94A2BCC3C3C3C39968A6
:104370004FF00008C1F302454119B08C3BF811B071
:10438000A8421DD0308DC0F30220A84216D1B9F842
:104390000200401C80B2A9F80200032810D9FFF7E0
:1043A0005DF8B9F80210642902D96421A9F8021055
:1043B000B08DF0854FF00108B48501E0A9F8024006
:1043C000708DFA2811D9B9F80200062810D9BAF967
:1043D0000200FEF7C1FE0A280ADDB8F1000F0BD07B
:1043E000B08CF0840720387006E0308E012803D0AE
:1043F00008203870FFF728F9A6F828B0B5847AE0CD
:10440000BAF8021052460904CAF85410BAF8581003
:10441000CAF80810758A694321F34E31BAF916506B
:1044200089B28D4200DAD18AD58E691A91868AB214
:1044300057498A820A838A8340228A809A6822F0B6
:1044400008029A6096F82620524B02F007021344A5
:10445000C35CA1F85C3002443BF81220C2F30A05A9
:1044600002F4E06245EAC20248F280052A430A816A
:10447000B1F86420C2F3022210443BF81000088116
:10448000FFF746F90320387035E002EB4200C0F335
:10449000CF353280A94204D0FEF7CAFFFFF714F9E6
:1044A00017E0358427E002EB4200C0F3CF353280BD
:1044B000A942F6D0FEF7BCFFFFF706F9FFF728F98F
:1044C0000121A9F800100A2038700420B083AAF84E
:1044D0007640B08DF085B485E3E7B9F80010012986
:1044E00009D1A9F8004006E0F08D00EB40008542BC
:1044F00001D9FFF771FCBAF84C0041F28831401C39
:1045000080B25546AAF84C00884202D9A5F84C4022
:104510002C871A48B5F944104C38FFF744FE80B296
:10452000A5F84E00F1884843A96CB1FBF0F0B5F94D
:10453000001080B2002904DD00B22887002805DBC6
:1045400005E0404200B22887002800DD2C8738783B
:10455000062800D22C87B9F80210062904D80628AC
:1045600001D0082800D12C870448B5F938106038EC
:10457000FFF719FE6880BDE8F09F000048010018B1
:104580003C00001800800148F25E0011780000181D
:1045900000C00040125F00114FF050207F2100F852
:1045A000B41F012100F83C1C802100F8381C0021B8
:1045B00000F8641C272202710172812202730174C7
:1045C000017780F8981080F8CC107047064844F2C4
:1045D0005F0181801321018208210180818841F4DB
:1045E00000418180704700000040024810B54FF044
:1045F000502494F83400400707D5207B400704D5A9
:10460000FFF74EF9042084F87C0110BD05485F21B6
:1046100081801321018200210180818841F40041C1
:10462000818070470060024810B5FFF7ABFD02487B
:104630000168491C016010BD800000180949084844
:1046400008600948016A21F01101016207480178F8
:1046500021F00401017000210176C021017770472B
:104660000030001108ED00E00060005000500048EC
:1046700010B5FFF791FFFEF7E3FDFEF713FEFEF71F
:1046800085FEFFF7B3F8FFF7F9FCFFF773FDFFF7BF
:1046900025FEFFF79BFFFFF7B9FFBDE81040FFF7CE
:1046A00027BD10B54FF0502494F82800800607D598
:1046B0002079800604D500F03DFB202084F82C00F2
:1046C00094F82800C00607D52079C00604D500F06C
:1046D00017F9102084F82C0010BD70472DE9F04721
:1046E000DFF884800026D8F8181021F00101C8F8FE
:1046F00018101E4DD5F88870D5F8880020F0FF00FE
:10470000C5F888000524DFF868904FF4A04A08E057
:10471000C0F814A06420FFF743F9641E2404240C9D
:104720001CD0D9F81810484611F4A04FF0D1ACB104
:10473000D8F8181041F00101C8F818100A2440F206
:10474000633806E06420FFF72BF9641E2404240C70
:1047500004D0A96E4145F5D304B10126C5F888708F
:104760003046BDE8F08700000080014800C00148E5
:104770000060005003498007000E48630249012091
:1047800008707047006000507C0000180849002045
:104790004A68B2F52C7F02D80A78012A06D1054A68
:1047A0003E205063002048600870012070470000E0
:1047B0007C000018006000500446FFF7E7FF09483E
:1047C00010F8C01F64F307010170BFF34F8F064854
:1047D0000168064A01F4E06111430160BFF34F8FA5
:1047E00000BFFDE7004000500CED00E00400FA05BA
:1047F0002DE9F04116460C460546382219491A485B
:10480000FEF7AEFC19481A490278284600F0B0F8C5
:10481000154F012816D0174A46EA0440162D14D029
:104820001D2D18D007EB450027F81560448038226D
:104830000D490C48FEF794FC00F0E2FABDE8F041A7
:10484000FFF736BA27F81540F1E70748BE85C4855B
:10485000F96A106802E007490860F96A01F032FA63
:10486000B862E4E74000001884000018F15E00110F
:10487000EA5E00113400001810B51346092905D06E
:104880000A2924D00B2924D0002010BD3BB1012BD4
:1048900008D0022A09D000F05DFA012010BD00F016
:1048A000A7FAFAE700F05CFAF7E70C4810F8C01F27
:1048B000FF210170BFF34F8F09480168094A01F4D5
:1048C000E06111430160BFF34F8F00BFFDE700229D
:1048D00000E00122194600F058F8DEE700400050E1
:1048E0000CED00E00400FA0510B50446008808B994
:1048F0004FF4E05000F02EFA0020208010BD0000A0
:104900000548017B21F0040101730448818821F4EA
:10491000004181807047000000800248006002482A
:1049200010B5124C0020207041F28830A081012087
:10493000608141F2941060804FF4FA60A08040F2F0
:10494000DC50E0804FF4FA702081FEF7D9FCFEF7CE
:1049500077FCFFF7C3FE03E0FEF7EAFCFFF716FF64
:1049600020780028F8D0C0B210BD0000C0000018A8
:1049700010B5002305E0CC5C844201D1012010BDBC
:104980005B1C9342F7DB002010BD10B50B460446BC
:1049900011461846FFF778FC2046BDE8104000F0AD
:1049A000DFB9000010B5394C102846D007DC68B1DB
:1049B000012815D002282CD0032824D133E0112857
:1049C00045D012284DD013281DD154E0382230494B
:1049D0003048FEF7C5FB206A20F440712C4808E0FF
:1049E00038222D492B48FEF7BBFB206A20F440718A
:1049F0002948028F41EA02212162216A408F21F079
:104A000007010143216200F0FBF9BDE81040FFF708
:104A10004FB9382221491F48FEF7A2FB206A20F433
:104A200040711E48E5E738221D491A48FEF798FBF9
:104A3000206A20F440711A48DBE7382219491548EA
:104A4000FEF78EFB206A20F440711648D1E7382229
:104A500015491048FEF784FB206A20F44071124883
:104A6000C7E7382211490B48FEF77AFB206A20F489
:104A700040710E48BDE738220D490648FEF770FB2D
:104A8000206A20F440710A48B3E700000080014822
:104A9000008000114000001880800011008100118A
:104AA0008081001100C0011180C0011100C10111FD
:104AB00080C10111FFF7DCFD664D674800266E726C
:104AC00090F8C40000F052F901210846FFF7B2FB4C
:104AD00000210220FFF7AEFB00210320FFF7AAFB15
:104AE00040F2011000F03CF95C48C16A806A00F0B5
:104AF000A3FE5B493822086058495A48FEF730FB4C
:104B00004FF4FA60FFF7F6F8FFF7D2F801242C71A2
:104B1000544FDFF85481FFF739FE28790228FAD183
:104B2000032028716A782978A889FFF7A5FE90B933
:104B300028780D280FD2DFE800F00E071418325B3A
:104B40006770750E0E0E88006878102805D0012851
:104B50005FD0FFF731FE2C71DDE7A889401C80B2E1
:104B600070E06878FFF71EFF6BE038223B493D4854
:104B7000FEF7F6FAD8F82010C1F301213987D8F8EA
:104B8000200000F007007887042801D904207887E6
:104B900034483A21FEF76AFEA872AC70DBE7314870
:104BA0003A21FEF763FEA872E97A814231D1687A30
:104BB000012802D1FFF710F96E72382229492748DF
:104BC000FEF7CEFAD8F820103A8F21F4407141EA6E
:104BD0000221C8F82010D8F820107A8F21F00701A0
:104BE0001143C8F8201000F00BF9FFF761F828E036
:104BF000687A012802D1FFF7EFF86E722A8AE989F4
:104C00006878FFF7F5FD1CE0687800F031F8E8708F
:104C1000B8B9A88900F09EF89DE7B5F91200FFF732
:104C200069F80EE06878697A084304D1FFF740F824
:104C3000FFF766F86C726878012802D1FFF7CCF8AC
:104C40006E72A88900F08CF885E70848FFF74CFEE3
:104C500081E70000000000180040005040000018EC
:104C60003400001884000018008001483E0000183D
:104C700070B5284E05460024382227493046FEF7F5
:104C80006FFA35B1012D06D0022D07D0032D09D1C1
:104C900006E0224C06E0214C803403E0204C01E089
:104CA0001F4C80341F4900200968884710F0FF0F0F
:104CB0002DD11D4A002120461268904710F0FF0FA9
:104CC00025D13A213046FEF7D1FD05460120FFF7F8
:104CD00051FD1649204609688847FFF757FD002017
:104CE000315C2154401CC0B23A28F9D30120FFF7AF
:104CF00041FD0F49002009688847FFF747FD3A2129
:104D00002046FEF7B3FD854201D1012070BD002091
:104D100070BD0000840000184000001800C00111A0
:104D200000C10111245F0011305F0011285F0011E4
:104D30002C5F00110548017B41F004010173044818
:104D4000818841F400418180704700000080024862
:104D50000060024801490881888970470060024864
:104D600000F5805080B2FFF7F5BF00001F4A4FF0FA
:104D70005021012814D002281BD0032827D0042852
:104D80000DD112F8C40F0420107011F8B80F40F0C4
:104D90000C0001F89009087840F00C00087070478A
:104DA00012F8C40F0120107011F8B80F40F0030082
:104DB00016E012F8C40F0220107011F8B80F40F07E
:104DC000300001F89009087840F03000E6E712F86A
:104DD000C40F0320107011F8B80F20F00300801CDE
:104DE00001F89009087840F00300D7E70040005030
:104DF00010B5FFF795FDBDE81040FFF7B7BF000005
:104E00002DE9F041264E2749274A306808600221E3
:104E1000118005460146254800F076FD244900240E
:104E2000086024480480284600F0DAFC02460B465D
:104E30000020214900F036F9204F00223B4600F0C7
:104E400031F98846054600F0B5FA1D493B46002277
:104E500008802846414600F0D9FB00F0ABFA19491A
:104E6000088019480460194804601948046019480A
:104E7000F16A006800F026FFB0621748016A21F469
:104E8000407216490B8F42EA03220262026A498F7E
:104E900022F007020A430262BDE8F041FEF7A6BC19
:104EA000400000181400001818000018002474496D
:104EB0001C00001820000018D01283410000F03FB1
:104EC0002200001824000018280000182C000018E8
:104ED00030000018340000180080014884000018D9
:104EE00021F00042A2F16052B2F5801F01F00043B0
:104EF00028BFD2F17F6C0BD95FEA001C43EAC202E3
:104F000042EB507018BF704728BF20F00100704777
:104F1000B2F5801FBCBF184670474FEA410C1CF524
:104F2000001F02D2084600F0C8BE70B500F01AFBA0
:104F300000000089FFF7F6BF4FF00040A0F58000A9
:104F40007047000010B591EA030F48BF83F000439B
:104F500000F16483841A71EB030C05D2121943EB40
:104F60000C03001B61EB0C01DFF824E14FEA115444
:104F7000A4EB135C1EEA430F18BF9EEA445F73D094
:104F800023EA0E03DCF1200E21EA045143F48013DE
:104F900032D322FA0CFE10EB0E0023FA0CFE41EB8A
:104FA0000E01CCF1200E03FA0EFE10EB0E0051F1B3
:104FB0000001B1F5801FCCF1200E32D201EB04517B
:104FC00012FA0EF2BDE8104058BF7047401C38BFBF
:104FD0005FEA420218BF7047002814BF20F00100AA
:104FE00041F100014FEA410313F5001F38BF70473C
:104FF000A1F1C04100F004BB012A43EB0302ACF174
:10500000200CDCF11F0E32BF4FF0000E23FA0CF320
:1050100010EB030041EB0451B4EB115FD0D0A1EBD6
:10502000045101F5801149085FEA300001EB045199
:105030000ED350F1000038BF12FA0EFE08D1BDE8C1
:105040001040C9E7401C38BF5FEA4202CAD1C3E73B
:10505000BDE810404FEA410313F5001F38BF704709
:10506000A1F1C04100F0CCBA9EEA445F08D011EA39
:105070005E0FBDE8104004BF01F000410020704702
:10508000BDE8104070B500F06DFA00BF64FBBE3E95
:105090000000E0FF02494FF0000000F088BE00BFB2
:1050A0000000F87F2DE9C04130B4DFF8A0C23CEA2F
:1050B000111418BF3CEA131400F0EC8081EA0305D8
:1050C0001CEA111444EAD57418BF1CEA131500F049
:1050D000C780A4EB05044FF0004545EAC12145EA2D
:1050E000C32341EA505143EA525304F17F74994279
:1050F00004F500344FEAC0204FEAC22208BF9042B4
:1051000000F09C804FEA13650FF24016765D4FEA7F
:10511000134506FB05F7C7F1807706FB07F74FEA53
:10512000D737A7FB03687642C8F58038A7FB06CEC1
:1051300038BFA8F1010807FB08E64FF0000EA6FBF8
:10514000028CE6FB03CEDCF1000CCEF1004E38BF42
:10515000AEF1010EA6FB0C584FF000074FF0000512
:10516000E6FB0E87A1FB08C6A0FB07CE16EB0E06DA
:1051700045F10005E1FB076515F1E04E7EBFA4F5A2
:1051800080345FEA46066D4116F1800745F100055F
:105190004FEA17274FEA066647EA0567A6F1DE469B
:1051A000B6F1805F4FEA15251FD9384624F0010C6F
:1051B00005EBC471BCF1FE6F01EB0C1102D8F0BC21
:1051C000BDE8008124425CBF01F5801E9EEAC47FD9
:1051D00002D4F0BCBDE80081244238D4F0BCA1F177
:1051E000C041BDE8004100F00BBA4FEAD22242EACA
:1051F00043524FEAD323A7FB02864FEAD02040EA6E
:10520000415007FB03661EEA0E0F4FEAD12105FB52
:10521000026658BFA6EB0056B6EB00564FEA520E98
:105220004EEAC37E18EB0E0E56EB530EBDD518EBAF
:1052300002085E417F1C55F10005B6E74FF480156A
:105240004FF000074FF000064FF00008ADE7F0BC4C
:105250004FF0000001F1C04101F00041BDE80081C4
:1052600011EA0C1F0CEA131500D00CE013EA0C1F16
:1052700000F025804FF00000F0BC81EA030101F04E
:105280000041BDE80081F0BCBDE8004181EA0301B6
:1052900000F0B6B9F0BCBDE8004170B500F062F9AD
:1052A000097EFC3E00F007B881EA03014FF00000E0
:1052B00001F00041704781EA030100F0A1B9F0BCA0
:1052C000BDE800414FF0000021497047FFFDFBF9A8
:1052D000F7F5F4F2F0EEEDEBE9E8E6E4E3E1E0DE29
:1052E000DDDBDAD8D7D5D4D3D1D0CFCDCCCBCAC89B
:1052F000C7C6C5C4C2C1C0BFBEBDBCBBBAB9B8B7C2
:10530000B6B5B4B3B2B1B0AFAEADACABAAA9A8A8B4
:10531000A7A6A5A4A3A3A2A1A09F9F9E9D9C9C9B82
:105320009A9999989797969595949393929191902D
:105330008F8F8E8E8D8C8C8B8B8A898988888787BE
:105340008685858484838382828181800000FF0733
:105350000000F87F4FEA41034FEA5353A3F58063FF
:10536000D3F11E03C8BFD3F1210C0CDD4FF0004276
:1053700042EAC12242EA505232FA03FC8CEAE17C52
:10538000ACEBE1707047102BC4BF0020704703F5F1
:10539000787CBCF1FF3F04D06FF0004282EA21002C
:1053A000704770B500F0DEF8499224800020704705
:1053B000F2E700004FEA1153A3F58063D3F11E0317
:1053C000A8BFD3F1200C08DB4FF0004242EAC12213
:1053D00052EA505232FA03F0704709420BD4102BB4
:1053E000C4BF0020704703F5787CBCF1FF3F05D0B7
:1053F0004FF0FF3070474FF00000704770B500F07D
:10540000B1F800BF4992248000207047F0E7000007
:10541000DFF848C170B51CEA111E1EBF1CEA131547
:105420009EEA0C0F95EA0C0F00F06F8081EA0304EE
:1054300023EA4C134EEAD47E21EA4C1141F4801148
:1054400043F48013AE44A1FB024CA0FB0365AEF114
:105450007F7E361955EB0C05A1FB034C4CF1000384
:10546000A0FB021C16EB0C06654153F10003094238
:1054700018BF46F0010613F4007F0BD14FEA033149
:105480004FEA0530340341EA155140EA16506FF0F7
:1054900003020AE04FEAC3214FEAC520F40241EAC1
:1054A000555140EA56506FF0020202EB2E4201EBDA
:1054B000025585EACE710AD05FEA440C18BF24F089
:1054C000004450F1000041F1000120EAD47040F2A4
:1054D000FE7C624500D270BDA84214BF4FF08044EC
:1054E0004FF04044002E08BF0024BEF1806FA8BFDB
:1054F000A1F1C041BDE8704080F282804FF0000011
:1055000001F1C04101F0004170479EEA0C0F0CEA26
:10551000131518BF95EA0C0F06D04FF0000081EA72
:10552000030E0EF0004170BD00F01CF88900013E32
:1055300000F007B800F009B84FEA430C5FEA5C5C82
:1055400008D081EA030100F05BB84FEA410C5FEA42
:105550005C5CF6D14FF00000014970470000FF0786
:105560000000F87F0EF1020E2EF0030E5EF8046BC1
:10557000364205D4012A43EB030515F5001F12D866
:10558000012841EB010C1CF5001F0CD80ED14FEA8D
:10559000D17C15F5001F0CEB4C0C0CF1020C08BF74
:1055A0004CEBD37C04E04FF0080C01E04FEAD37CD5
:1055B0000CEB4C0526FA05F606F00706B6F1040CCE
:1055C00006D20EEB860CBDE870404CF0010C604733
:1055D000DFE80CF0090B02024FF000414FF0000031
:1055E000A1F5002170BD19461046012851EB0104B8
:1055F00018BFD4F5001484BF002001F0004170BD35
:105600000808A0F500114FEA3101704710B591EA82
:10561000030F48BF83F000433FF59CAC841A71EB45
:10562000030C07D212198CF0004C43EB0C03001B47
:1056300061EB0C01DFF8A4E14FEA1154A4EB135C19
:105640001EEA430F18BF9EEA445F00F0B08023EAD1
:105650006E03524221EA0451C3EB6E0338BF5B1E56
:10566000DCF1200E25D322FA0CFE10EB0E0043FADB
:105670000CFE41EB0E01CCF1200E03FA0EFE10EBF6
:105680000E0051F10001CCF1200E29D412FA0EF2D5
:1056900001EB0451BDE8104058BF7047401C1CBFCF
:1056A000B2F1004F704700280CBF491C20F00100E8
:1056B000704712EB020E43EB030218BF4FF0010ECE
:1056C0004EEA4202ACF1200CDCF11E0E54D943FA32
:1056D0000CFE10EB0E0051F1FF31CCF11E0ED5D5B2
:1056E0000EF1010E12FA0EFE404141EB010101EBF9
:1056F000445C5FEA5C5C10D910EBDE7001EB045196
:1057000038BFBEF1004FBDE8104018BF70470028F9
:105710000CBF491C20F00100704730D24FEAD42C56
:1057200011F5001124F400641BD0B1FA81F20B3A98
:10573000A41AA41ED2F12003914030FA03F31943B6
:10574000904001EBCC71002C01EB0451BDE81040FE
:10575000A8BF704701F1C0414FF0000001F00041C7
:105760007047B0FA80F310FA03F100D110BDE41ACB
:10577000173C4805C90AE4E701EB045110BD491084
:1057800001EB0451BDE810404FEA300002E04FF059
:10579000000170474A0008BF0042F8D0B2F5001F70
:1057A00028BF704701F000414FF0000070479EEAAB
:1057B000445F07D011EA5E0FBDE8104004BF00212E
:1057C00000207047BDE8104070B5FFF7CBFE00BF6A
:1057D00040DFF63E83F00041104670470000E0FFD6
:1057E00043004FEAD30C4FEA3C0C43401FBF400735
:1057F0000CF1605113F0FE4F70471CF0006F03D1A5
:1058000000200CF0004170470CF0004343EA507058
:1058100010B540EACC0000F00AFA00BF0000009288
:105820004FEA0001FFF7ECBE4FF000414FF00000DF
:10583000A1F500217047000090EA010F48BF81F0F8
:10584000004100F14682421A3CBF801A89184FEA93
:10585000D0524FF07F4C1CEA410FA2EBD15318BF3E
:105860009CEA026F00F03B804FF0004C4CEA0020B5
:105870004CEA012121FA03FC10EB0C0C1ED202F1C0
:10588000FF325FEA1C2040EBC25038BF70471CF06B
:105890007F0F4FEA400C18BFBCF17F4F38BF7047F5
:1058A000C3F12003994008BF20F00100BCF17F4FF5
:1058B00038BF7047A0F1C04000F0FFB94FEA3C008C
:1058C000000A40EBC25028BF1CF0FF0F4FEA400C0B
:1058D000E6D018BFBCF17F4F38BF7047EAE79CEABB
:1058E000026F05D010EA5C0F08BF00F0004070475F
:1058F00010B500F09CF900BF64FBBE3E014800F00B
:1059000056BA00BF0000C07F4FF47F0C1CEAD012D3
:105910001EBF1CEAD11392EA0C0F93EA0C0F00F0A1
:10592000858090EA010F48BF42F4807240F4000C79
:1059300041F400002CF07F4120F07F4000B581420F
:10594000A2EB03020FF2081CACEB504EC0F10000BA
:105950009EF800E04FEA4E0E00FB0EFC38BF4900F7
:105960004FEA2C1C02F5FA020CFB0EF34FEACE1E96
:105970004FEA112C4FEAC1210EEB635E42EB22424B
:105980000EFB0CFC4FEA1C5300FB03114FEA112CD9
:105990004FEA01310EFB0CFC4FEADC4C00FB0C1112
:1059A000C14228BF09184CEB03335DF804EB10EB40
:1059B000410143EBC250B2F57C0F38BF704729D587
:1059C00012F0F00F1CBF00F1C04000F00040704723
:1059D000008182838485868788898B8C8D8E8F91C8
:1059E0009293959697999A9C9D9FA0A2A3A5A7A8EC
:1059F000AAACAEB0B2B3B5B7B9BCBEC0C2C5C7C918
:105A0000CCCED1D4D7D9DCDFE2E6E9ECF0F3F7FA7B
:105A1000FE0000004FEA400C0CF1807CBCF17E4F90
:105A200028BF7047B0F1C04000F047B990EA010FBD
:105A30000CEAD11348BF42F48072624538BF634517
:105A400007D213F47F0F16D080EA010000F0004067
:105A5000704710B500F0EBF8097EFC3E00F005B889
:105A600080EA010000F00040704780EA010000F089
:105A7000004000F022B912F47F0F04BF02487047C3
:105A800080EA010000F019B90000C07F41000B0E50
:105A9000D3F19E0208D950F400034FEA032323FAFE
:105AA00002F048BF4042704710B500F0C0F800BF98
:105AB00049922480002070476FF0004282EA200063
:105AC00070470000C10DD1F19E0206DB4FEA0023B2
:105AD00043F0004323FA02F07047004207D54FEA33
:105AE0004001B1F1FE4F02D24FF00000704710B5F7
:105AF00000F09DF849922480002070476FEA200052
:105B000070470000B0FA80F310FA03F2C3F19D036E
:105B10000AD0D90501EB1220530638BF704700F1B7
:105B2000010008BF20F00100704700004FF47F0C17
:105B30001CEAD0121EBF1CEAD11392EA0C0F93EAA2
:105B40000C0F00F0478090EA010F48BF42F48072CA
:105B50004FF0004C4CEA00204CEA012102EB03021A
:105B6000A0FB0113A2F50002002918BF43F00103B6
:105B70005B0028BF4FEA330342EB22425FEA132C5B
:105B80004CEBC2502EBFBCEB436FB2F57C0F70479D
:105B90004FEA036CBCF1004F08BF20F00100B2F5E2
:105BA0007C0F38BF70470BD582F0FF0212F5803FA3
:105BB000C8BF704700F1C040D8BF00F00040704738
:105BC00000F5000C5FEA4C0C48BF7047B0F1C040D4
:105BD00000F073B890EA010F0CEAD11348BF42F409
:105BE0008072624538BF634504D280EA010000F04C
:105BF0000040704710B500F01AF800BF8900013E60
:105C000000F007B800F009B85FEA410C5FEA1C6CCD
:105C100008D080EA010000F050B85FEA400C5FEA6B
:105C20001C6CF6D14FF00040A0F5800070470EF1DB
:105C3000020E2EF0030E5EF8044B244204D44FEA09
:105C40004102B2F17F4F11D84FEA4003B3F17F4FC9
:105C50000CD80ED14FEAD07CB2F17F4F0CEB4C0C3C
:105C60000CF1020C08BF4CEBD17C04E04FF0080CA7
:105C700001E04FEAD17C0CEB4C0324FA03F404F06E
:105C80000704B4F1040C06D20EEB840CBDE81040FE
:105C90004CF0010C6047DFE80CF0070802024FF0FF
:105CA0000040A0F5800010BD0846420018BFD2F1A8
:105CB000807288BF00F0004010BDFF2141EAD05043
:105CC000C005704790EA010F48BF81F000413FF5E1
:105CD000BAAD421A04D882F00042A0EB020011448F
:105CE0004FEAD0524FF07F4C1CEA410FA2EBD15348
:105CF00018BF9CEA026F4AD04FF0004C4CEA0020DB
:105D00004CEA012121FA03FCB0EB0C0C0FD412F089
:105D1000FE0F36D05FEA4C001DD5001240EBC2509A
:105D200038BF70471CF03F0F18BF70470BE0A2F15F
:105D300001025FEA1C2040EBC25038BF70471CF0E4
:105D40007F0F18BF7047C3F12003994014BF401E56
:105D500020F00100704780084FEA122308BF704707
:105D6000B0FA80FCA2EB0C02CCF1280C60FA0CF02B
:105D700093EA122F04BF00EBC25070474FEAC37082
:105D80007047130A5FEADC1008BF7047F6E79CEA29
:105D9000026F04D010EA5C0F08BF0020704710B5F6
:105DA000FFF745FF40DFF63E81F0004070470CF002
:105DB0000F03092B08BF082000F07F800A2B0BD0AF
:105DC000082B18BF704708BF1CF0400F0AD04FF0D7
:105DD00000004FF0000170471CF0400F18BF4FF05B
:105DE000004070471CF0100F08D020F0704300F006
:105DF0007F4242EAD3014FEA4370704700F06040AF
:105E000021F07F4242EA000201F07F4040EA7270D6
:105E100070474FF0FF0C4CF4E06C1CEA11531CBFB0
:105E20009CEA030C9445C2BFDA4201EB0251704771
:105E3000002B0DD0BCF1000F0FD0002A01F0004163
:105E4000A4BF41F0E04141F07F614FF00000704796
:105E500001F000414FF00000704750EA01334FF06D
:105E60009B0C18BF4CF0806C7FF414A970474FF066
:105E7000FF0212EAD0521CBF92F0FF038B42C2BF56
:105E8000D14200EBC1507047002A0AD0002B0BD042
:105E9000002900F00040A4BF40F0FE4040F40000A4
:105EA000704700F00040704743024FF00B0C18BFE2
:105EB0004CF0806C7FF422AD70471CF4801F11D031
:105EC0001CF4E02F03D06FEACC31490070474FF04B
:105ED0004050EFF3008222F0704242EA000282F367
:105EE000008870474FF0000070471B1C060203112A
:105EF00010070000310B0716341A1C250D29133426
:105F0000000000000D0D3413311913261C2C07322C
:105F1000000000B083B08C8C8300008CB0B0838C08
:105F2000830000001D390000E5380000DD38000066
:105F3000D5380000BC81001100000018840000006A
:105F4000BC30001140820011840000185C03000086
:105F5000D830001100000000000000000000000028
:105F60000000000000000000000000000000000031
:105F70000000000000000000000000000000000021
:105F80000000000000000000000000000000000011
:105F90000000000000000000000000000000000001
:1080000000409C46C80032000AD7233C0400000010
:10801000CDCCCC3D00007A4400007A4500401C469F
:10802000010001000000C84214AEC73E0AD7233C3D
:108030000AD7233CCDCCCC3D00000000000000005E
:108040000000000000000000000000000000000030
:108050000000000000000000000000000000000020
:108060000000000000000000000000000000000010
:108070000000000000000000000000000000000000
:1080800000000000000000000000000000000000F0
:1080900000000000000000000000000000000000E0
:1080A00000000000000000000000000000000000D0
:1080B00000000000000000000000000000000000C0
:1080C00000000000000000000000000000000000B0
:1080D00000000000000000000000000000000000A0
:1080E0000000000000000000000000000000000090
:1080F0000000000000000000000000000000000080
:10810000000000000000000000000000000000006F
:10811000000000000000000000000000000000005F
:10812000000000000000000000000000000000004F
:10813000000000000000000000000000000000003F
:10814000000000000000000000000000000000002F
:10815000000000000000000000000000000000001F
:10816000000000000000000000000000000000000F
:1081700000000000000000000000000000000000FF
:1081800000000000000000000000000000000000EF
:1081900000000000000000000000000000000000DF
:1081A00000000000000000000000000000000000CF
:1081B00000000000000000000000000000000000BF
:1081C00000000000000000000000000000000000AF
:1081D00000409C4602000000000048420000D0071A
:1081E000CF070000000000000000000000000000B9
:1081F000CDCCCC3E000000000000000000409C46BA
:10820000C80032000AD7233C04000000CDCCCC3D8E
:1082100000007A4400007A4500401C46010001003D
:108220000000C84214AEC73E0AD7233C0AD7233CFD
:10823000CDCCCC3D0000000000000000000000009C
:020000041101E8
:10C000000000000000000000000000000000000030
:10C010000000000000000000000000000000000020
:10C020000000000000000000000000000000000010
:0CC0300000000000000000000000000004
:020000041101E8
:10C0800000000000000000000000000000000000B0
:10C0900000000000000000000000000000000000A0
:10C0A0000000000000000000000000000000000090
:0CC0B00000000000000000000000000084
:020000041101E8
:10C10000000000000000000000000000000000002F
:10C11000000000000000000000000000000000001F
:10C12000000000000000000000000000000000000F
:0CC1300000000000000000000000000003
:020000041101E8
:10C1800000000000000000000000000000000000AF
:10C19000000000000000000000000000000000009F
:10C1A000000000000000000000000000000000008F
:0CC1B00000000000000000000000000083
:040000051100308135
:00000001FF
