:020000041100E9
:10000000800200181D01001125010011A904001132
:100010005505001165030011790A00110000000068
:100020000000000000000000000000002F0100118F
:10003000310100110000000033010011BD09001161
:10004000370100113701001137010011370100118C
:10005000370100113701001137010011370100117C
:100060003701001171090011370100112D0A00112B
:10007000110400115D040011370100113701001156
:1000800000F002F800F03AF80AA090E8000C824470
:100090008344AAF10107DA4501D100F02FF8AFF24D
:1000A000090EBAE80F0013F0010F18BFFB1A43F056
:1000B000010318476C1300008C130000103A24BF92
:1000C00078C878C1FAD8520724BF30C830C144BFBD
:1000D00004680C60704700000023002400250026FF
:1000E000103A28BF78C1FBD8520728BF30C148BF9B
:1000F0000B6070471FB51FBD10B510BD00F02FF885
:100100001146FFF7F7FF00F019FE00F04DF803B4B9
:10011000FFF7F2FF03BC00F055F8000009488047E4
:1001200009480047FEE7FEE7FEE7FEE7FEE7FEE7D9
:10013000FEE7FEE7FEE7FEE704480549034A054BF4
:1001400070470000D10900118100001180000018E3
:10015000800200188000001870477047704775468D
:1001600000F02CF8AE4605006946534620F0070023
:10017000854618B020B5FFF7DFFFBDE820404FF0FF
:1001800000064FF000074FF000084FF0000B21F081
:100190000701AC46ACE8C009ACE8C009ACE8C0094E
:1001A000ACE8C0098D46704710B50446AFF3008037
:1001B0002046BDE81040FFF7AABF00000048704786
:1001C0002000001801491820ABBEFEE726000200FF
:1001D000704700002DE9F84F044689464FF0000AA9
:1001E000684649460025164EA6EB81021668C6F3FE
:1001F000404323B11668C6F389060680012500BF77
:10020000012D1AD1BDF8000041F28831484340F277
:10021000FF3190FBF1F02080B9F1060F0BD120885F
:1002200001F069F80746074A074B00F0DFFE054674
:1002300001F034F820804FF0010A5046BDE8F88FF5
:100240007040004079E9263108ACCC3F4FF4407053
:100250004FF0402148604FF020308861C861881518
:10026000086500208860C860486288624FF420609A
:10027000C86200200867C866886648660866C86560
:1002800088650864C8670E494860012088610D4888
:10029000007820F001004FF0502181F860004FF00D
:1002A0004020406820F4407000F540704FF040213D
:1002B00048600846006840F0010008607047000090
:1002C00000800148605000500648007920F010007E
:1002D0001030044908710846007820F010000870BA
:1002E00070470000008002480648007920F01000A6
:1002F000044908710846007820F01000103008709A
:10030000704700000080024810B505211448FFF72F
:1003100061FF13480C388089B0F5FA7F1DDD104865
:100320000C3882894089401E0D490A3931F8100085
:10033000824206DD881E807A891E0870FFF7D4FF8E
:100340000BE007480C384089042806DA04480C38CA
:100350004089401C02490C394881012010BD000031
:100360001C0000187047000000BF0C49898908462E
:100370000B490978012904D040F60211884200D0C7
:10038000704708490880010A074A1170074A10702F
:100390000221034A117000BFF2E70000006002482A
:1003A00006000018000000180200001803000018E2
:1003B00030B5034603EB83044FF6FF7505EAC4022C
:1003C0004FF0E024A469A0B290420DDB841AA1B2E0
:1003D00000BF4FF0E024A4698C4217D94FF0E0240D
:1003E000A4698442F5D311E04FF0E0246469151A42
:1003F000641BA1B200BF4FF0E024A4698442FAD389
:1004000000BF4FF0E024A4698C42FAD830BD000050
:1004100010B51148007800F0020058B14FF050209C
:100420000079C0F3400028B100F040FD02200A49E5
:10043000091D08700848007800F0010058B14FF01D
:100440005020007900F0010028B100F02FFC0120BD
:100450000149091D087010BD2850005010B5114801
:10046000007800F0080058B14FF050200079C0F338
:10047000C00028B100F01AFD08200A49091D0870C3
:100480000848007800F0040058B14FF0502000797F
:10049000C0F3800028B100F009FC04200149091DC7
:1004A000087010BD285000507047000000204FF029
:1004B00050210870204908704FF0502181F8280021
:1004C0001D490C3108702420091D08700120091DE8
:1004D0000870091D08700020184908704FF0FF10BF
:1004E000174948621748486100200862886213492A
:1004F000883908701249C86513490860091D0860E9
:10050000091D0860091D08604FF468500F49086014
:1005100080204FF050210877FF20084928310870CB
:10052000091D08700020054918390870091D087058
:100530000749086070470000245000505C5100508B
:1005400000600050C7FF3F3F00E400E000E100E032
:1005500020ED00E07047000030B5024602F00705CC
:10056000012404FA05F31409144D05EBC40072B616
:1005700019B904789C4304701EE0012903D1047862
:100580001C43047018E0022903D104785C40047015
:1005900012E0032908D1094C241D150904EBC500FC
:1005A00004789C43047007E0044C241D150904EBF7
:1005B000C50004781C43047062B630BD0080024858
:1005C00030B5024602F00705012404FA05F31409C8
:1005D000144D05EBC40072B619B904789C4304703D
:1005E0001EE0012903D104781C43047018E002299D
:1005F00003D104785C40047012E0032908D1094C4F
:10060000241D150904EBC50004789C43047007E021
:10061000044C241D150904EBC50004781C43047028
:1006200062B630BD008002480C21314A11710421AC
:100630002F4A40321170002000BF00BF00BF00BF32
:100640002B49087700BF00BF00BF00BF00BF08767E
:1006500000BF00BF00BF00BF00BF81F8300000BF77
:1006600000BF00BF00BF00BF2149343108701C210A
:100670001F4A117008211173002182F8441000BF35
:1006800000BF00BF00BF00BF19492431087000BF80
:1006900000BF00BF00BF00BF114681F8200000BFAF
:1006A00000BF40F0040000BF00BF1149383108709E
:1006B000002000BF00BF00BF00BF091D0870082157
:1006C00011728221117500BF00BF00BF00BF00BFC3
:1006D00000BF00BF06492C31087000BF00BF00BF3B
:1006E00000BF00BF00BF00BF114681F8280070475F
:1006F0000080024810B572B600207E49096888471C
:100700007D48007820F002004FF0502181F824004D
:10071000084690F8240020F00100774908709820DE
:100720004FF0502181F8AC0073484C30007820F035
:10073000C000C03070494C310870A8206E49883123
:100740000870982008709020091D0870A820091FC3
:100750000870982008706020674920310870A82030
:10076000654988310870982008700020624924315A
:100770000870A8204FF0502181F8AC005E4820306E
:10078000007820F00200801C81F84400084690F8B0
:10079000440020F0080081F84400084690F8440026
:1007A00020F0040054492031087000BF5248203026
:1007B000007800F001000028F8D098204E498831D8
:1007C000087000204FF0502181F87000A82081F8B7
:1007D000AC000846007820F00200801C0870012060
:1007E00045493431087098204FF0502181F8AC0011
:1007F00041483030007820F00200801C3E49303102
:100800000870A8203C498831087000BF98204FF03C
:10081000502181F8AC00084690F8540020F0020006
:10082000354930310870A8203349883108701320C9
:1008300031493831087098204FF0502181F8AC00D0
:100840002D483030007820F00200801C2A493031D9
:100850000870A82028498831087000BF98204FF000
:10086000502181F8AC00084690F8540020F00200B6
:10087000214930310870A8201F498831087098201C
:10088000087004201C4930310870A8201A498831AA
:100890000870982008700020174948310870A82077
:1008A00015498831087098204FF0502181F8AC002C
:1008B00011483030007820F00200801C0E493031A1
:1008C0000870A8200C498831087000BF98204FF0AC
:1008D000502181F8AC00084690F8540020F0020046
:1008E000054930310870A82003498831087062B684
:1008F00010BD0000C4130011245000507F20134984
:10090000087001204FF0502181F8780080200F49B5
:100910003839087000200D49643908703F200B49B0
:10092000091D08700020091D08708120091D08702C
:100930000020091D087005491C31087003499831D1
:1009400008700249CC31087070470000B450005064
:10095000012006498880132008820020088008466C
:10096000808840F4004088807047000000400248C2
:1009700010B508480078C0F3800050B14FF0502007
:10098000007BC0F3800020B1FFF7EEFC0420024999
:10099000087010BD345000507C5100505F20064953
:1009A000888013200882002008800846808840F450
:1009B00000408880704700000060024800BF034884
:1009C0000068401C0149086000BF7047080000181B
:1009D00010B54FF088500B490860FFF78BFE00F010
:1009E00095F80948006A20F0110007490862074895
:1009F000007820F004000549087000200876C02027
:100A0000087710BD08ED00E000600050005000487D
:100A100010B5FFF773FFFFF719FCFFF705FEFFF7AF
:100A200097FFFFF7BBFFFFF741FD10BD10B5114861
:100A3000007800F0200058B14FF050200079C0F34A
:100A4000401028B100F032FA20200A49091D087030
:100A50000848007800F0100058B14FF0502000799D
:100A6000C0F3001028B100F021F910200149091D40
:100A7000087010BD285000507047000070B5002667
:100A80001F48806920F001001D4988611D480568E4
:100A90001C488838D0F8880020F0FF001949086009
:100AA000052408E04FF4A040174948616420FFF78F
:100AB0007FFC601E84B22CB11348806900F4A04012
:100AC0000028EFD1C4B10E48806920F00100401C1D
:100AD0000B4988610A2404E06420FFF769FC601E6A
:100AE00084B2002C06DD07488838806E40F26331FE
:100AF0008842F1D304B1012602480560304670BD3A
:100B00000080014888C001480060005049F640401C
:100B10004FF0E021486100214FF0E0229161114641
:100B2000096921F00401091D11611146096921F0CB
:100B30000201891C11611146096921F00101491C5A
:100B400011613F21034A51630021034A1160034AA6
:100B50001170704700600050080000180C00001869
:100B6000002009490968B1F52F7F03D207490978A8
:100B7000012908D13F21064A51630021024A116030
:100B8000024A117001207047080000180C0000187C
:100B9000006000502DE9F04104462548456825488D
:100BA0004668254847682548D0F8048000BFFFF70D
:100BB000D7FF0128FBD1012C06D0022C10D0032C2A
:100BC0001AD0042C30D123E000201D4908701D48A4
:100BD000808820F400401B49888072B6A84724E032
:100BE0000020174908701748808820F400401549F4
:100BF000888072B6B04718E000201149087011488B
:100C0000808820F400400F49888072B6B8470CE015
:100C100000200B4908700B48808820F400400949E7
:100C2000888072B6C04700E000BF00BFBDE8F08119
:100C30000030001100A0001100000111001001118E
:100C4000285000500060024870B506460D46144614
:100C5000092D04D00A2D18D00B2D24D11CE024B16D
:100C6000012C05D0022C09D106E000F0B7F909E00B
:100C7000304600F037F905E000F0ECF8304600F0BF
:100C800029F900BF00BF012070BD00222146304677
:100C900000F048F80120F7E701222146304600F035
:100CA00041F80120F0E70020EEE700000648007B55
:100CB00020F00400044908730448808820F40040B0
:100CC00002498880704700000080024800600248A6
:100CD00010B500201249087041F288308881012047
:100CE000488141F2941048804FF4FA610C488180A9
:100CF00040F2DC51C1804FF4FA710181FFF7E4FA50
:100D0000FFF7A4FAFFF7BAFE03E0FFF7FDFAFFF7DB
:100D100027FF034800780028F7D00148007810BD6D
:100D20001000001870B506460C46154629462046A8
:100D3000FFF746FC304600F0D5F870BD0024FFF701
:100D400067FE3E4804783D48C03890F8C000002057
:100D50003A490870012C03D0022C01D0032C02D197
:100D60002046FFF717FF4FF4807000F0BBF800211A
:100D70000220FFF7F1FB00210320FFF7EDFB00212C
:100D80001320FFF7E9FB00F029F901202C49087036
:100D900052E0FFF7E5FE2A48007802284BD10320F5
:100DA0002749087027480278274801782748008893
:100DB000FFF74AFF18B10120214908703CE02248A2
:100DC0000078012802D00C2830D118E01D480078A6
:100DD000102804D11D49088800F084F80BE0194858
:100DE000007820B117480078FFF7D4FE03E01748D9
:100DF000008800F06FF80120114908701AE0012006
:100E00000F4908701248008858B110490988104AE3
:100E10001288114488B200F05DF800200C49088067
:100E200008E00A48008800F05DF803E0012004496A
:100E3000087000BF00BF00BFABE70000C04000501B
:100E40000600001803000018020000180000001837
:100E50000400001812480078FF201149C03981F8B9
:100E6000C00000BF00BF00BF00BF00BFBFF34F8F77
:100E700000BF00BF00BF0B48006800F4E0600A49F3
:100E80000843001D0749086000BF00BF00BFBFF353
:100E90004F8F00BF00BF00BF00BF00BFFDE70000D5
:100EA000C04000500CED00E00000FA050748007B50
:100EB00020F00400001D054908730548808820F4CF
:100EC000004000F5004002498880704700800248D9
:100ED0000060024800BF024908818989704700000C
:100EE0000060024800B5024602F5805188B2FFF763
:100EF000F1FF00BD012806D002281DD0032834D000
:100F0000042864D14AE0334909780121314AC43ABE
:100F100082F8C4103049097821F00301C91C4FF050
:100F2000502282F8B8102C499039097821F0030139
:100F3000C91C82F828104BE0264909780221254A6D
:100F4000C43A82F8C4102449097821F030013031C4
:100F50004FF0502282F8B8101F499039097821F0DB
:100F60003001303182F8281032E01A490978032123
:100F7000184AC43A82F8C4101749097821F00301CD
:100F8000891C4FF0502282F8B81013499039097823
:100F900021F00301C91C82F8281019E00D490978D5
:100FA00004210C4AC43A82F8C4100B49097821F094
:100FB0000C010C314FF0502282F8B81006499039DC
:100FC000097821F00C010C3182F8281000E000BFF4
:100FD00000BF7047C4400050B850005010B5FFF734
:100FE00077FE04462046FFF785FF10BD2DE9C0417E
:100FF00030B4DFF8A0C23CEA111418BF3CEA131465
:1010000000F0EC8081EA03051CEA111444EAD5746F
:1010100018BF1CEA131500F0C780A4EB05044FF0BD
:10102000004545EAC12145EAC32341EA505143EA5C
:10103000525304F17F74994204F500344FEAC02002
:101040004FEAC22208BF904200F09C804FEA13652D
:101050000FF24016765D4FEA134506FB05F7C7F120
:10106000807706FB07F74FEAD737A7FB036876427E
:10107000C8F58038A7FB06CE38BFA8F1010807FBEA
:1010800008E64FF0000EA6FB028CE6FB03CEDCF177
:10109000000CCEF1004E38BFAEF1010EA6FB0C588D
:1010A0004FF000074FF00005E6FB0E87A1FB08C6D6
:1010B000A0FB07CE16EB0E0645F10005E1FB076528
:1010C00015F1E04E7EBFA4F580345FEA46066D411F
:1010D00016F1800745F100054FEA17274FEA06662B
:1010E00047EA0567A6F1DE46B6F1805F4FEA1525AF
:1010F0001FD9384624F0010C05EBC471BCF1FE6F1A
:1011000001EB0C1102D8F0BCBDE8008124425CBFA9
:1011100001F5801E9EEAC47F02D4F0BCBDE80081C8
:10112000244238D4F0BCA1F1C041BDE8004100F038
:1011300043B94FEAD22242EA43524FEAD323A7FBF4
:1011400002864FEAD02040EA415007FB03661EEAC0
:101150000E0F4FEAD12105FB026658BFA6EB0056E1
:10116000B6EB00564FEA520E4EEAC37E18EB0E0E57
:1011700056EB530EBDD518EB02085E417F1C55F1AE
:101180000005B6E74FF480154FF000074FF000065A
:101190004FF00008ADE7F0BC4FF0000001F1C04196
:1011A00001F00041BDE8008111EA0C1F0CEA1315A3
:1011B00000D00CE013EA0C1F00F025804FF0000077
:1011C000F0BC81EA030101F00041BDE80081F0BC00
:1011D000BDE8004181EA030100F0EEB8F0BCBDE8D3
:1011E000004170B500F09AF8097EFC3E00F007B8A7
:1011F00081EA03014FF0000001F00041704781EAED
:10120000030100F0D9B8F0BCBDE800414FF0000088
:1012100021497047FFFDFBF9F7F5F4F2F0EEEDEB35
:10122000E9E8E6E4E3E1E0DEDDDBDAD8D7D5D4D3E4
:10123000D1D0CFCDCCCBCAC8C7C6C5C4C2C1C0BF30
:10124000BEBDBCBBBAB9B8B7B6B5B4B3B2B1B0AF36
:10125000AEADACABAAA9A8A8A7A6A5A4A3A3A2A11A
:10126000A09F9F9E9D9C9C9B9A99999897979695D5
:1012700095949393929191908F8F8E8E8D8C8C8B71
:101280008B8A8989888887878685858484838382F9
:10129000828181800000FF070000F87F4FEA115330
:1012A000A3F58063D3F11E03A8BFD3F1200C08DBA4
:1012B0004FF0004242EAC12252EA505232FA03F0A1
:1012C000704709420BD4102BC4BF0020704703F5B0
:1012D000787CBCF1FF3F05D04FF0FF3070474FF0F6
:1012E0000000704770B500F019F800BF49922480E3
:1012F00000207047F0E7B0FA80F310FA03F10AD04B
:10130000C3F11D0303F580634FEA41504FEA0352D6
:1013100002EBD12170474FF0000070470EF1020E32
:101320002EF0030E5EF8046B364205D4012A43EB1F
:10133000030515F5001F12D8012841EB010C1CF51F
:10134000001F0CD80ED14FEAD17C15F5001F0CEB15
:101350004C0C0CF1020C08BF4CEBD37C04E04FF0BA
:10136000080C01E04FEAD37C0CEB4C0526FA05F69D
:1013700006F00706B6F1040C06D20EEB860CBDE8AB
:1013800070404CF0010C6047DFE80CF0090B0202E2
:101390004FF000414FF00000A1F5002170BD19464B
:1013A0001046012851EB010418BFD4F5001484BF86
:1013B000002001F0004170BD0808A0F500114FEABF
:1013C00031017047253900001D3900001539000032
:1013D0000D39000005390000FD380000F538000027
:1013E000ED380000E5380000DD380000D538000099
:1013F000CD380000C5380000BD380000B538000009
:10140000AD3800009D380000753800006D380000D0
:10141000653800004D380000453800003D380000B8
:10142000401400110000001810000000BC00001162
:10143000501400111000001870020000D8000011B4
:10144000000000000000000000000000000000009C
:020000041101E8
:04EFFC0049B601FE13
:040000051100011DC8
:00000001FF
